{
  "contractName": "HelloToken",
  "abi": [
    {
      "inputs": [],
      "payable": false,
      "stateMutability": "nonpayable",
      "type": "constructor"
    },
    {
      "constant": true,
      "inputs": [],
      "name": "getMessage",
      "outputs": [
        {
          "internalType": "string",
          "name": "",
          "type": "string"
        }
      ],
      "payable": false,
      "stateMutability": "view",
      "type": "function"
    },
    {
      "constant": true,
      "inputs": [],
      "name": "getLastCaller",
      "outputs": [
        {
          "internalType": "address",
          "name": "",
          "type": "address"
        }
      ],
      "payable": false,
      "stateMutability": "view",
      "type": "function"
    },
    {
      "constant": true,
      "inputs": [],
      "name": "getCreator",
      "outputs": [
        {
          "internalType": "address",
          "name": "",
          "type": "address"
        }
      ],
      "payable": false,
      "stateMutability": "view",
      "type": "function"
    },
    {
      "constant": true,
      "inputs": [],
      "name": "getTotalGas",
      "outputs": [
        {
          "internalType": "uint256",
          "name": "",
          "type": "uint256"
        }
      ],
      "payable": false,
      "stateMutability": "view",
      "type": "function"
    },
    {
      "constant": false,
      "inputs": [
        {
          "internalType": "string",
          "name": "newMessage",
          "type": "string"
        }
      ],
      "name": "setMessage",
      "outputs": [],
      "payable": false,
      "stateMutability": "nonpayable",
      "type": "function"
    }
  ],
  "bytecode": "0x608060405234801561001057600080fd5b50326000806101000a81548173ffffffffffffffffffffffffffffffffffffffff021916908373ffffffffffffffffffffffffffffffffffffffff1602179055503a6003819055506040518060400160405280600b81526020017f48656c6c6f20746f6b656e000000000000000000000000000000000000000000815250600290805190602001906100a39291906100a9565b5061014e565b828054600181600116156101000203166002900490600052602060002090601f016020900481019282601f106100ea57805160ff1916838001178555610118565b82800160010185558215610118579182015b828111156101175782518255916020019190600101906100fc565b5b5090506101259190610129565b5090565b61014b91905b8082111561014757600081600090555060010161012f565b5090565b90565b6104908061015d6000396000f3fe608060405234801561001057600080fd5b50600436106100575760003560e01c80630ee2cb101461005c578063368b8772146100a657806364326c7114610161578063880b36e71461017f578063ce6d41de146101c9575b600080fd5b61006461024c565b604051808273ffffffffffffffffffffffffffffffffffffffff1673ffffffffffffffffffffffffffffffffffffffff16815260200191505060405180910390f35b61015f600480360360208110156100bc57600080fd5b81019080803590602001906401000000008111156100d957600080fd5b8201836020820111156100eb57600080fd5b8035906020019184600183028401116401000000008311171561010d57600080fd5b91908080601f016020809104026020016040519081016040528093929190818152602001838380828437600081840152601f19601f820116905080830192505050505050509192919290505050610275565b005b6101696102e0565b6040518082815260200191505060405180910390f35b6101876102ea565b604051808273ffffffffffffffffffffffffffffffffffffffff1673ffffffffffffffffffffffffffffffffffffffff16815260200191505060405180910390f35b6101d1610314565b6040518080602001828103825283818151815260200191508051906020019080838360005b838110156102115780820151818401526020810190506101f6565b50505050905090810190601f16801561023e5780820380516001836020036101000a031916815260200191505b509250505060405180910390f35b60008060009054906101000a900473ffffffffffffffffffffffffffffffffffffffff16905090565b806002908051906020019061028b9291906103b6565b5032600160006101000a81548173ffffffffffffffffffffffffffffffffffffffff021916908373ffffffffffffffffffffffffffffffffffffffff1602179055503a60036000828254019250508190555050565b6000600354905090565b6000600160009054906101000a900473ffffffffffffffffffffffffffffffffffffffff16905090565b606060028054600181600116156101000203166002900480601f0160208091040260200160405190810160405280929190818152602001828054600181600116156101000203166002900480156103ac5780601f10610381576101008083540402835291602001916103ac565b820191906000526020600020905b81548152906001019060200180831161038f57829003601f168201915b5050505050905090565b828054600181600116156101000203166002900490600052602060002090601f016020900481019282601f106103f757805160ff1916838001178555610425565b82800160010185558215610425579182015b82811115610424578251825591602001919060010190610409565b5b5090506104329190610436565b5090565b61045891905b8082111561045457600081600090555060010161043c565b5090565b9056fea265627a7a72315820439a432d5c0047845d88a7cfe6e0301381d097e4d0331ae666c9ff39fd6271df64736f6c63430005100032",
  "source": "// SPDX-License-Identifier: MIT\npragma solidity >=0.4.22 <0.9.0;\n\ncontract HelloToken {\n  \n    // Begin: state variables\n    address private creator;\n    address private lastCaller;\n    string private message;\n    uint private totalGas;\n    // End: state variables\n\n    // Begin: constructor\n    constructor() public {\n        /*\n          We can use the special variable `tx` which gives us information\n          about the current transaction.\n\n          `tx.origin` returns the sender of the transaction.\n          `tx.gasprice` returns how much we pay for the transaction\n        */\n        creator = tx.origin;\n        totalGas = tx.gasprice;\n        message = 'Hello token';\n    }\n    // End: constructor\n\n    // Begin: getters\n    function getMessage() public view returns(string memory) {\n        return message;\n    }\n\n    function getLastCaller() public view returns(address) {\n        return lastCaller;\n    }\n\n    function getCreator() public view returns(address) {\n        return creator;\n    }\n\n    function getTotalGas() public view returns(uint) {\n        return totalGas;\n    }\n    // End: getters\n\n    // Being: setters\n    function setMessage(string memory newMessage) public {\n        message = newMessage;\n        lastCaller = tx.origin;\n        totalGas += tx.gasprice;\n    }\n    // End: setters\n}",
  "sourcePath": "C:/dev/workspace/blockchain/example/contracts/HelloToken.sol",
  "compiler": {
    "name": "solc",
    "version": "0.5.16+commit.9c3226ce.Emscripten.clang"
  },
  "schemaVersion": "3.3.4",
  "updatedAt": "2021-04-25T12:24:44.323Z",
  "devdoc": {
    "methods": {}
  },
  "userdoc": {
    "methods": {}
  }
}